{
  "contractName": "EthVote",
  "abi": [
    {
      "constant": true,
      "inputs": [
        {
          "name": "",
          "type": "address"
        }
      ],
      "name": "voters",
      "outputs": [
        {
          "name": "",
          "type": "bool"
        }
      ],
      "payable": false,
      "stateMutability": "view",
      "type": "function"
    },
    {
      "constant": true,
      "inputs": [],
      "name": "panelsCount",
      "outputs": [
        {
          "name": "",
          "type": "uint256"
        }
      ],
      "payable": false,
      "stateMutability": "view",
      "type": "function"
    },
    {
      "constant": true,
      "inputs": [
        {
          "name": "",
          "type": "uint256"
        }
      ],
      "name": "panels",
      "outputs": [
        {
          "name": "id",
          "type": "string"
        },
        {
          "name": "name",
          "type": "string"
        },
        {
          "name": "voteCount",
          "type": "uint256"
        }
      ],
      "payable": false,
      "stateMutability": "view",
      "type": "function"
    },
    {
      "anonymous": false,
      "inputs": [
        {
          "indexed": true,
          "name": "_panelId",
          "type": "string"
        }
      ],
      "name": "votedEvent",
      "type": "event"
    },
    {
      "constant": true,
      "inputs": [
        {
          "name": "a",
          "type": "string"
        },
        {
          "name": "b",
          "type": "string"
        }
      ],
      "name": "compareStrings",
      "outputs": [
        {
          "name": "",
          "type": "bool"
        }
      ],
      "payable": false,
      "stateMutability": "pure",
      "type": "function"
    },
    {
      "constant": false,
      "inputs": [
        {
          "name": "_panelid",
          "type": "string"
        }
      ],
      "name": "addPanel",
      "outputs": [],
      "payable": false,
      "stateMutability": "nonpayable",
      "type": "function"
    },
    {
      "constant": false,
      "inputs": [
        {
          "name": "_panelId",
          "type": "string"
        }
      ],
      "name": "vote",
      "outputs": [],
      "payable": false,
      "stateMutability": "nonpayable",
      "type": "function"
    },
    {
      "constant": true,
      "inputs": [],
      "name": "winningProposal",
      "outputs": [
        {
          "name": "winningProposal_",
          "type": "uint256"
        }
      ],
      "payable": false,
      "stateMutability": "view",
      "type": "function"
    },
    {
      "constant": true,
      "inputs": [],
      "name": "winnerName",
      "outputs": [
        {
          "name": "",
          "type": "string"
        }
      ],
      "payable": false,
      "stateMutability": "view",
      "type": "function"
    }
  ],
  "bytecode": "0x608060405234801561001057600080fd5b5061103d806100206000396000f30060806040526004361061008e576000357c0100000000000000000000000000000000000000000000000000000000900463ffffffff16806334c9e96214610093578063609ff1bd146100fc578063a3ec138d14610127578063bed34bba14610182578063e2ba53f014610249578063e3ba06d1146102d9578063f40e4f6f14610304578063fc36e15b1461041d575b600080fd5b34801561009f57600080fd5b506100fa600480360381019080803590602001908201803590602001908080601f0160208091040260200160405190810160405280939291908181526020018383808284378201915050505050509192919290505050610486565b005b34801561010857600080fd5b50610111610514565b6040518082815260200191505060405180910390f35b34801561013357600080fd5b50610168600480360381019080803573ffffffffffffffffffffffffffffffffffffffff169060200190929190505050610578565b604051808215151515815260200191505060405180910390f35b34801561018e57600080fd5b5061022f600480360381019080803590602001908201803590602001908080601f0160208091040260200160405190810160405280939291908181526020018383808284378201915050505050509192919290803590602001908201803590602001908080601f0160208091040260200160405190810160405280939291908181526020018383808284378201915050505050509192919290505050610598565b604051808215151515815260200191505060405180910390f35b34801561025557600080fd5b5061025e610749565b6040518080602001828103825283818151815260200191508051906020019080838360005b8381101561029e578082015181840152602081019050610283565b50505050905090810190601f1680156102cb5780820380516001836020036101000a031916815260200191505b509250505060405180910390f35b3480156102e557600080fd5b506102ee6108ef565b6040518082815260200191505060405180910390f35b34801561031057600080fd5b5061032f600480360381019080803590602001909291905050506108f5565b604051808060200180602001848152602001838103835286818151815260200191508051906020019080838360005b8381101561037957808201518184015260208101905061035e565b50505050905090810190601f1680156103a65780820380516001836020036101000a031916815260200191505b50838103825285818151815260200191508051906020019080838360005b838110156103df5780820151818401526020810190506103c4565b50505050905090810190601f16801561040c5780820380516001836020036101000a031916815260200191505b509550505050505060405180910390f35b34801561042957600080fd5b50610484600480360381019080803590602001908201803590602001908080601f0160208091040260200160405190810160405280939291908181526020018383808284378201915050505050509192919290505050610a4f565b005b606060405190810160405280828152602001828152602001600081525060026000600154815260200190815260200160002060008201518160000190805190602001906104d4929190610f6c565b5060208201518160010190805190602001906104f1929190610f6c565b506040820151816002015590505060016000815480929190600101919050555050565b6000806000809150600090505b60015481101561057357816002600083815260200190815260200160002060020154111561056657600260008281526020019081526020016000206002015491508092505b8080600101915050610521565b505090565b60006020528060005260406000206000915054906101000a900460ff1681565b6000816040516020018082805190602001908083835b6020831015156105d357805182526020820191506020810190506020830392506105ae565b6001836020036101000a0380198251168184511680821785525050505050509050019150506040516020818303038152906040526040518082805190602001908083835b60208310151561063c5780518252602082019150602081019050602083039250610617565b6001836020036101000a038019825116818451168082178552505050505050905001915050604051809103902060001916836040516020018082805190602001908083835b6020831015156106a65780518252602082019150602081019050602083039250610681565b6001836020036101000a0380198251168184511680821785525050505050509050019150506040516020818303038152906040526040518082805190602001908083835b60208310151561070f57805182526020820191506020810190506020830392506106ea565b6001836020036101000a03801982511681845116808217855250505050505090500191505060405180910390206000191614905092915050565b60608060006040805190810160405280600281526020017f20200000000000000000000000000000000000000000000000000000000000008152509150600090505b6001548110156108e7576108d86040805190810160405280600781526020017f4e616d65203a2000000000000000000000000000000000000000000000000000815250600260008481526020019081526020016000206001018054600181600116156101000203166002900480601f0160208091040260200160405190810160405280929190818152602001828054600181600116156101000203166002900480156108785780601f1061084d57610100808354040283529160200191610878565b820191906000526020600020905b81548152906001019060200180831161085b57829003601f168201915b50505050506040805190810160405280600d81526020017f20546f74616c20566f74653a20000000000000000000000000000000000000008152506108d26002600087815260200190815260200160002060020154610c3c565b86610d9e565b9150808060010191505061078b565b819250505090565b60015481565b6002602052806000526040600020600091509050806000018054600181600116156101000203166002900480601f0160208091040260200160405190810160405280929190818152602001828054600181600116156101000203166002900480156109a15780601f10610976576101008083540402835291602001916109a1565b820191906000526020600020905b81548152906001019060200180831161098457829003601f168201915b505050505090806001018054600181600116156101000203166002900480601f016020809104026020016040519081016040528092919081815260200182805460018160011615610100020316600290048015610a3f5780601f10610a1457610100808354040283529160200191610a3f565b820191906000526020600020905b815481529060010190602001808311610a2257829003601f168201915b5050505050908060020154905083565b60008060003373ffffffffffffffffffffffffffffffffffffffff1673ffffffffffffffffffffffffffffffffffffffff16815260200190815260200160002060009054906101000a900460ff16151515610aa957600080fd5b600090505b600154811015610ba957610b70600260008381526020019081526020016000206000018054600181600116156101000203166002900480601f016020809104026020016040519081016040528092919081815260200182805460018160011615610100020316600290048015610b655780601f10610b3a57610100808354040283529160200191610b65565b820191906000526020600020905b815481529060010190602001808311610b4857829003601f168201915b505050505083610598565b15610b9c5760026000828152602001908152602001600020600201600081548092919060010191905055505b8080600101915050610aae565b816040518082805190602001908083835b602083101515610bdf5780518252602082019150602081019050602083039250610bba565b6001836020036101000a03801982511681845116808217855250505050505090500191505060405180910390207fc67ac03f9480999b27a37e263a5df747fef748d1edb0b64684da8fb07d21180e60405160405180910390a25050565b60606000806060600080600080881415610c8d576040805190810160405280600181526020017f30000000000000000000000000000000000000000000000000000000000000008152509650610d93565b8795505b600086141515610cb7578480600101955050600a86811515610caf57fe5b049550610c91565b846040519080825280601f01601f191660200182016040528015610cea5781602001602082028038833980820191505090505b5093508492505b600088141515610d8f57600183039250600a8089811515610d0e57fe5b040288036030019150817f0100000000000000000000000000000000000000000000000000000000000000029050808484815181101515610d4b57fe5b9060200101907effffffffffffffffffffffffffffffffffffffffffffffffffffffffffffff1916908160001a905350600a88811515610d8757fe5b049750610cf1565b8396505b505050505050919050565b606085858585856040516020018086805190602001908083835b602083101515610ddd5780518252602082019150602081019050602083039250610db8565b6001836020036101000a03801982511681845116808217855250505050505090500185805190602001908083835b602083101515610e305780518252602082019150602081019050602083039250610e0b565b6001836020036101000a03801982511681845116808217855250505050505090500184805190602001908083835b602083101515610e835780518252602082019150602081019050602083039250610e5e565b6001836020036101000a03801982511681845116808217855250505050505090500183805190602001908083835b602083101515610ed65780518252602082019150602081019050602083039250610eb1565b6001836020036101000a03801982511681845116808217855250505050505090500182805190602001908083835b602083101515610f295780518252602082019150602081019050602083039250610f04565b6001836020036101000a03801982511681845116808217855250505050505090500195505050505050604051602081830303815290604052905095945050505050565b828054600181600116156101000203166002900490600052602060002090601f016020900481019282601f10610fad57805160ff1916838001178555610fdb565b82800160010185558215610fdb579182015b82811115610fda578251825591602001919060010190610fbf565b5b509050610fe89190610fec565b5090565b61100e91905b8082111561100a576000816000905550600101610ff2565b5090565b905600a165627a7a723058203b6670ee413a9df81c0050d2665a9198d89f57a26635ec3b2591d97be4ec1fc90029",
  "source": "// SPDX-License-Identifier: GPL-3.0\r\n\r\npragma solidity 0.4.26;\r\n\r\ncontract EthVote{\r\n       function append(string a, string b, string c, string d, string e) internal pure returns (string) {\r\n    return string(abi.encodePacked(a, b, c, d, e));\r\n    }\r\n    function uint2str(uint _i) internal pure returns (string memory _uintAsString) {\r\n        if (_i == 0) {\r\n            return \"0\";\r\n        }\r\n        uint j = _i;\r\n        uint len;\r\n        while (j != 0) {\r\n            len++;\r\n            j /= 10;\r\n        }\r\n        bytes memory bstr = new bytes(len);\r\n        uint k = len;\r\n        while (_i != 0) {\r\n            k = k-1;\r\n            uint8 temp = (48 + uint8(_i - _i / 10 * 10));\r\n            bytes1 b1 = bytes1(temp);\r\n            bstr[k] = b1;\r\n            _i /= 10;\r\n        }\r\n        return string(bstr);\r\n    }\r\n\r\n    function compareStrings(string memory a, string memory b)\r\n        public\r\n        pure\r\n        returns (bool){\r\n        return (keccak256(abi.encodePacked((a))) ==\r\n        keccak256(abi.encodePacked((b))));\r\n    }\r\n\r\n    struct Panel {\r\n        string id;\r\n        string name;\r\n        uint256 voteCount;\r\n    }\r\n    mapping(address => bool) public voters;\r\n    uint256 public panelsCount;\r\n\r\n    mapping(uint256 => Panel) public panels;\r\n\r\n    function addPanel(string memory _panelid) public {\r\n        \r\n        panels[panelsCount] = Panel(_panelid, _panelid, 0);\r\n        panelsCount++;\r\n    }\r\n\r\n    event votedEvent(string indexed _panelId);\r\n\r\n    function vote(string memory _panelId) public {\r\n        // require that they haven't voted before\r\n        require(!voters[msg.sender]);\r\n\r\n        // require a valid candidate\r\n        // require(_candidateId > 0 && _candidateId <= candidatesCount);\r\n\r\n        // record that voter has voted\r\n        for (uint256 i = 0; i < panelsCount; i++) {\r\n            if (compareStrings(panels[i].id, _panelId)) {\r\n                panels[i].voteCount++;\r\n            }\r\n        }\r\n        //voters[msg.sender] = true;\r\n\r\n        // update candidate vote Count\r\n\r\n        // trigger voted event\r\n        emit votedEvent(_panelId);\r\n    }\r\n\r\n    function winningProposal() public view returns (uint256 winningProposal_) {\r\n        uint256 winningVoteCount = 0;\r\n        for (uint256 p = 0; p < panelsCount; p++) {\r\n            if (panels[p].voteCount > winningVoteCount) {\r\n                winningVoteCount = panels[p].voteCount;\r\n                winningProposal_ = p;\r\n            }\r\n        }\r\n    }\r\n\r\n    function winnerName() public view returns (string) {\r\n        string memory x = \"  \";\r\n        for (uint256 p=0;p<panelsCount;p++){\r\n           x =  append(\"Name : \",panels[p].name,\" Total Vote: \",uint2str(panels[p].voteCount),x);\r\n        }\r\n\r\n        return x;\r\n    }\r\n}\r\n",
  "sourcePath": "C:\\Users\\Ali Hamza\\Desktop\\SEM-8\\FYP-II\\FYP-main\\TruffleDapp\\contracts\\ethvote.sol",
  "compiler": {
    "name": "solc",
    "version": "0.4.26+commit.4563c3fc.Emscripten.clang"
  },
  "schemaVersion": "2.0.3",
  "updatedAt": "2023-01-02T23:09:18.527Z"
}